{
  "_format": "hh-sol-artifact-1",
  "contractName": "MedicalRecords",
  "sourceName": "src/MedicalRecords.sol",
  "abi": [
    {
      "inputs": [
        {
          "internalType": "address",
          "name": "initialOwner",
          "type": "address"
        }
      ],
      "stateMutability": "nonpayable",
      "type": "constructor"
    },
    {
      "anonymous": false,
      "inputs": [
        {
          "indexed": true,
          "internalType": "address",
          "name": "owner",
          "type": "address"
        },
        {
          "indexed": true,
          "internalType": "address",
          "name": "approved",
          "type": "address"
        },
        {
          "indexed": true,
          "internalType": "uint256",
          "name": "tokenId",
          "type": "uint256"
        }
      ],
      "name": "Approval",
      "type": "event"
    },
    {
      "anonymous": false,
      "inputs": [
        {
          "indexed": true,
          "internalType": "address",
          "name": "owner",
          "type": "address"
        },
        {
          "indexed": true,
          "internalType": "address",
          "name": "operator",
          "type": "address"
        },
        {
          "indexed": false,
          "internalType": "bool",
          "name": "approved",
          "type": "bool"
        }
      ],
      "name": "ApprovalForAll",
      "type": "event"
    },
    {
      "anonymous": false,
      "inputs": [
        {
          "indexed": true,
          "internalType": "address",
          "name": "previousOwner",
          "type": "address"
        },
        {
          "indexed": true,
          "internalType": "address",
          "name": "newOwner",
          "type": "address"
        }
      ],
      "name": "OwnershipTransferred",
      "type": "event"
    },
    {
      "anonymous": false,
      "inputs": [
        {
          "indexed": false,
          "internalType": "uint256",
          "name": "reportId",
          "type": "uint256"
        }
      ],
      "name": "ReportCreated",
      "type": "event"
    },
    {
      "anonymous": false,
      "inputs": [
        {
          "indexed": true,
          "internalType": "address",
          "name": "from",
          "type": "address"
        },
        {
          "indexed": true,
          "internalType": "address",
          "name": "to",
          "type": "address"
        },
        {
          "indexed": true,
          "internalType": "uint256",
          "name": "tokenId",
          "type": "uint256"
        }
      ],
      "name": "Transfer",
      "type": "event"
    },
    {
      "inputs": [
        {
          "internalType": "address",
          "name": "to",
          "type": "address"
        },
        {
          "internalType": "uint256",
          "name": "tokenId",
          "type": "uint256"
        }
      ],
      "name": "approve",
      "outputs": [],
      "stateMutability": "nonpayable",
      "type": "function"
    },
    {
      "inputs": [
        {
          "internalType": "address",
          "name": "owner",
          "type": "address"
        }
      ],
      "name": "balanceOf",
      "outputs": [
        {
          "internalType": "uint256",
          "name": "",
          "type": "uint256"
        }
      ],
      "stateMutability": "view",
      "type": "function"
    },
    {
      "inputs": [
        {
          "internalType": "uint256",
          "name": "tokenId",
          "type": "uint256"
        }
      ],
      "name": "getApproved",
      "outputs": [
        {
          "internalType": "address",
          "name": "",
          "type": "address"
        }
      ],
      "stateMutability": "view",
      "type": "function"
    },
    {
      "inputs": [
        {
          "internalType": "address",
          "name": "owner",
          "type": "address"
        },
        {
          "internalType": "address",
          "name": "operator",
          "type": "address"
        }
      ],
      "name": "isApprovedForAll",
      "outputs": [
        {
          "internalType": "bool",
          "name": "",
          "type": "bool"
        }
      ],
      "stateMutability": "view",
      "type": "function"
    },
    {
      "inputs": [],
      "name": "name",
      "outputs": [
        {
          "internalType": "string",
          "name": "",
          "type": "string"
        }
      ],
      "stateMutability": "view",
      "type": "function"
    },
    {
      "inputs": [],
      "name": "nextReportId",
      "outputs": [
        {
          "internalType": "uint256",
          "name": "",
          "type": "uint256"
        }
      ],
      "stateMutability": "view",
      "type": "function"
    },
    {
      "inputs": [],
      "name": "owner",
      "outputs": [
        {
          "internalType": "address",
          "name": "",
          "type": "address"
        }
      ],
      "stateMutability": "view",
      "type": "function"
    },
    {
      "inputs": [
        {
          "internalType": "uint256",
          "name": "tokenId",
          "type": "uint256"
        }
      ],
      "name": "ownerOf",
      "outputs": [
        {
          "internalType": "address",
          "name": "",
          "type": "address"
        }
      ],
      "stateMutability": "view",
      "type": "function"
    },
    {
      "inputs": [],
      "name": "renounceOwnership",
      "outputs": [],
      "stateMutability": "nonpayable",
      "type": "function"
    },
    {
      "inputs": [
        {
          "internalType": "uint256",
          "name": "",
          "type": "uint256"
        }
      ],
      "name": "reportMetadata",
      "outputs": [
        {
          "internalType": "bytes32",
          "name": "blockHash",
          "type": "bytes32"
        },
        {
          "internalType": "bytes32",
          "name": "txHash",
          "type": "bytes32"
        },
        {
          "internalType": "string",
          "name": "reportName",
          "type": "string"
        }
      ],
      "stateMutability": "view",
      "type": "function"
    },
    {
      "inputs": [
        {
          "internalType": "address",
          "name": "from",
          "type": "address"
        },
        {
          "internalType": "address",
          "name": "to",
          "type": "address"
        },
        {
          "internalType": "uint256",
          "name": "tokenId",
          "type": "uint256"
        }
      ],
      "name": "safeTransferFrom",
      "outputs": [],
      "stateMutability": "nonpayable",
      "type": "function"
    },
    {
      "inputs": [
        {
          "internalType": "address",
          "name": "from",
          "type": "address"
        },
        {
          "internalType": "address",
          "name": "to",
          "type": "address"
        },
        {
          "internalType": "uint256",
          "name": "tokenId",
          "type": "uint256"
        },
        {
          "internalType": "bytes",
          "name": "_data",
          "type": "bytes"
        }
      ],
      "name": "safeTransferFrom",
      "outputs": [],
      "stateMutability": "nonpayable",
      "type": "function"
    },
    {
      "inputs": [
        {
          "internalType": "address",
          "name": "operator",
          "type": "address"
        },
        {
          "internalType": "bool",
          "name": "approved",
          "type": "bool"
        }
      ],
      "name": "setApprovalForAll",
      "outputs": [],
      "stateMutability": "nonpayable",
      "type": "function"
    },
    {
      "inputs": [
        {
          "components": [
            {
              "internalType": "bytes32",
              "name": "blockHash",
              "type": "bytes32"
            },
            {
              "internalType": "bytes32",
              "name": "txHash",
              "type": "bytes32"
            },
            {
              "internalType": "string",
              "name": "reportName",
              "type": "string"
            }
          ],
          "internalType": "struct MedicalRecords.AvailMetadata",
          "name": "_reportMetadata",
          "type": "tuple"
        }
      ],
      "name": "storePatientData",
      "outputs": [],
      "stateMutability": "nonpayable",
      "type": "function"
    },
    {
      "inputs": [
        {
          "internalType": "bytes4",
          "name": "interfaceId",
          "type": "bytes4"
        }
      ],
      "name": "supportsInterface",
      "outputs": [
        {
          "internalType": "bool",
          "name": "",
          "type": "bool"
        }
      ],
      "stateMutability": "view",
      "type": "function"
    },
    {
      "inputs": [],
      "name": "symbol",
      "outputs": [
        {
          "internalType": "string",
          "name": "",
          "type": "string"
        }
      ],
      "stateMutability": "view",
      "type": "function"
    },
    {
      "inputs": [
        {
          "internalType": "uint256",
          "name": "tokenId",
          "type": "uint256"
        }
      ],
      "name": "tokenURI",
      "outputs": [
        {
          "internalType": "string",
          "name": "",
          "type": "string"
        }
      ],
      "stateMutability": "view",
      "type": "function"
    },
    {
      "inputs": [
        {
          "internalType": "address",
          "name": "from",
          "type": "address"
        },
        {
          "internalType": "address",
          "name": "to",
          "type": "address"
        },
        {
          "internalType": "uint256",
          "name": "tokenId",
          "type": "uint256"
        }
      ],
      "name": "transferFrom",
      "outputs": [],
      "stateMutability": "nonpayable",
      "type": "function"
    },
    {
      "inputs": [
        {
          "internalType": "address",
          "name": "newOwner",
          "type": "address"
        }
      ],
      "name": "transferOwnership",
      "outputs": [],
      "stateMutability": "nonpayable",
      "type": "function"
    }
  ],
  "bytecode": "0x60806040523480156200001157600080fd5b5060405162001d2a38038062001d2a83398101604081905262000034916200029f565b604080518082018252600f81526e4d65646963616c205265636f72647360881b6020808301918252835180850190945260068452654d454452454360d01b9084015281519192916200008991600091620001f9565b5080516200009f906001906020840190620001f9565b505050620000bc620000b6620000ce60201b60201c565b620000d2565b620000c78162000124565b506200030e565b3390565b600680546001600160a01b038381166001600160a01b0319831681179093556040519116919082907f8be0079c531659141344cd1fd0a4f28419497f9722a3daafe3b4186f6b6457e090600090a35050565b6006546001600160a01b03163314620001845760405162461bcd60e51b815260206004820181905260248201527f4f776e61626c653a2063616c6c6572206973206e6f7420746865206f776e657260448201526064015b60405180910390fd5b6001600160a01b038116620001eb5760405162461bcd60e51b815260206004820152602660248201527f4f776e61626c653a206e6577206f776e657220697320746865207a65726f206160448201526564647265737360d01b60648201526084016200017b565b620001f681620000d2565b50565b8280546200020790620002d1565b90600052602060002090601f0160209004810192826200022b576000855562000276565b82601f106200024657805160ff191683800117855562000276565b8280016001018555821562000276579182015b828111156200027657825182559160200191906001019062000259565b506200028492915062000288565b5090565b5b8082111562000284576000815560010162000289565b600060208284031215620002b257600080fd5b81516001600160a01b0381168114620002ca57600080fd5b9392505050565b600181811c90821680620002e657607f821691505b602082108114156200030857634e487b7160e01b600052602260045260246000fd5b50919050565b611a0c806200031e6000396000f3fe608060405234801561001057600080fd5b50600436106101115760003560e01c806370a08231116100ad578063a22cb46511610071578063a22cb4651461024c578063b88d4fde1461025f578063c87b56dd14610272578063e985e9c514610285578063f2fde38b1461029857600080fd5b806370a0823114610205578063715018a6146102185780638b3f1736146102205780638da5cb5b1461023357806395d89b411461024457600080fd5b806301ffc9a71461011657806306fdde031461013e578063081812fc14610153578063095ea7b31461017e57806323b872dd1461019357806342842e0e146101a657806362a428d5146101b95780636352211e146101db5780636e79bbf6146101ee575b600080fd5b6101296101243660046112dc565b6102ab565b60405190151581526020015b60405180910390f35b6101466102bc565b6040516101359190611358565b61016661016136600461136b565b61034e565b6040516001600160a01b039091168152602001610135565b61019161018c3660046113a0565b6103db565b005b6101916101a13660046113ca565b6104ec565b6101916101b43660046113ca565b61051d565b6101cc6101c736600461136b565b610538565b60405161013593929190611406565b6101666101e936600461136b565b6105e3565b6101f760075481565b604051908152602001610135565b6101f761021336600461142e565b61065a565b6101916106e1565b61019161022e3660046114fe565b610717565b6006546001600160a01b0316610166565b6101466107d3565b61019161025a366004611596565b6107e2565b61019161026d3660046115d2565b6107f1565b61014661028036600461136b565b610829565b61012961029336600461164e565b61093f565b6101916102a636600461142e565b61096d565b60006102b682610a08565b92915050565b6060600080546102cb90611681565b80601f01602080910402602001604051908101604052809291908181526020018280546102f790611681565b80156103445780601f1061031957610100808354040283529160200191610344565b820191906000526020600020905b81548152906001019060200180831161032757829003601f168201915b5050505050905090565b600061035982610a58565b6103bf5760405162461bcd60e51b815260206004820152602c60248201527f4552433732313a20617070726f76656420717565727920666f72206e6f6e657860448201526b34b9ba32b73a103a37b5b2b760a11b60648201526084015b60405180910390fd5b506000908152600460205260409020546001600160a01b031690565b60006103e6826105e3565b9050806001600160a01b0316836001600160a01b031614156104545760405162461bcd60e51b815260206004820152602160248201527f4552433732313a20617070726f76616c20746f2063757272656e74206f776e656044820152603960f91b60648201526084016103b6565b336001600160a01b03821614806104705750610470813361093f565b6104dd5760405162461bcd60e51b815260206004820152603860248201527f4552433732313a20617070726f76652063616c6c6572206973206e6f74206f776044820152771b995c881b9bdc88185c1c1c9bdd995908199bdc88185b1b60421b60648201526084016103b6565b6104e78383610a75565b505050565b6104f63382610ae3565b6105125760405162461bcd60e51b81526004016103b6906116bc565b6104e7838383610bad565b6104e7838383604051806020016040528060008152506107f1565b6008602052600090815260409020805460018201546002830180549293919261056090611681565b80601f016020809104026020016040519081016040528092919081815260200182805461058c90611681565b80156105d95780601f106105ae576101008083540402835291602001916105d9565b820191906000526020600020905b8154815290600101906020018083116105bc57829003601f168201915b5050505050905083565b6000818152600260205260408120546001600160a01b0316806102b65760405162461bcd60e51b815260206004820152602960248201527f4552433732313a206f776e657220717565727920666f72206e6f6e657869737460448201526832b73a103a37b5b2b760b91b60648201526084016103b6565b60006001600160a01b0382166106c55760405162461bcd60e51b815260206004820152602a60248201527f4552433732313a2062616c616e636520717565727920666f7220746865207a65604482015269726f206164647265737360b01b60648201526084016103b6565b506001600160a01b031660009081526003602052604090205490565b6006546001600160a01b0316331461070b5760405162461bcd60e51b81526004016103b69061170d565b6107156000610d49565b565b6006546001600160a01b031633146107415760405162461bcd60e51b81526004016103b69061170d565b600780546000918261075283611758565b9091555082516000828152600860209081526040918290209283558086015160018401559085015180519394506107919360029093019291019061122d565b5061079c3382610d9b565b6040518181527fa334d01adfad3b6825eb093754e05bf8024eff7dee52c43fd93195ebe877a6649060200160405180910390a15050565b6060600180546102cb90611681565b6107ed338383610ece565b5050565b6107fb3383610ae3565b6108175760405162461bcd60e51b81526004016103b6906116bc565b61082384848484610f99565b50505050565b606060006040518060800160405280604381526020016119946043913960008481526008602052604081206002018054929350909161086790611681565b80601f016020809104026020016040519081016040528092919081815260200182805461089390611681565b80156108e05780601f106108b5576101008083540402835291602001916108e0565b820191906000526020600020905b8154815290600101906020018083116108c357829003601f168201915b50505050509050600082826040516020016108fc929190611773565b604051602081830303815290604052905061091681610fcc565b60405160200161092691906117f2565b6040516020818303038152906040529350505050919050565b6001600160a01b03918216600090815260056020908152604080832093909416825291909152205460ff1690565b6006546001600160a01b031633146109975760405162461bcd60e51b81526004016103b69061170d565b6001600160a01b0381166109fc5760405162461bcd60e51b815260206004820152602660248201527f4f776e61626c653a206e6577206f776e657220697320746865207a65726f206160448201526564647265737360d01b60648201526084016103b6565b610a0581610d49565b50565b60006001600160e01b031982166380ac58cd60e01b1480610a3957506001600160e01b03198216635b5e139f60e01b145b806102b657506301ffc9a760e01b6001600160e01b03198316146102b6565b6000908152600260205260409020546001600160a01b0316151590565b600081815260046020526040902080546001600160a01b0319166001600160a01b0384169081179091558190610aaa826105e3565b6001600160a01b03167f8c5be1e5ebec7d5bd14f71427d1e84f3dd0314c0f7b2291e5b200ac8c7c3b92560405160405180910390a45050565b6000610aee82610a58565b610b4f5760405162461bcd60e51b815260206004820152602c60248201527f4552433732313a206f70657261746f7220717565727920666f72206e6f6e657860448201526b34b9ba32b73a103a37b5b2b760a11b60648201526084016103b6565b6000610b5a836105e3565b9050806001600160a01b0316846001600160a01b03161480610b955750836001600160a01b0316610b8a8461034e565b6001600160a01b0316145b80610ba55750610ba5818561093f565b949350505050565b826001600160a01b0316610bc0826105e3565b6001600160a01b031614610c245760405162461bcd60e51b815260206004820152602560248201527f4552433732313a207472616e736665722066726f6d20696e636f72726563742060448201526437bbb732b960d91b60648201526084016103b6565b6001600160a01b038216610c865760405162461bcd60e51b8152602060048201526024808201527f4552433732313a207472616e7366657220746f20746865207a65726f206164646044820152637265737360e01b60648201526084016103b6565b610c91600082610a75565b6001600160a01b0383166000908152600360205260408120805460019290610cba908490611837565b90915550506001600160a01b0382166000908152600360205260408120805460019290610ce890849061184e565b909155505060008181526002602052604080822080546001600160a01b0319166001600160a01b0386811691821790925591518493918716917fddf252ad1be2c89b69c2b068fc378daa952ba7f163c4a11628f55a4df523b3ef91a4505050565b600680546001600160a01b038381166001600160a01b0319831681179093556040519116919082907f8be0079c531659141344cd1fd0a4f28419497f9722a3daafe3b4186f6b6457e090600090a35050565b6001600160a01b038216610df15760405162461bcd60e51b815260206004820181905260248201527f4552433732313a206d696e7420746f20746865207a65726f206164647265737360448201526064016103b6565b610dfa81610a58565b15610e475760405162461bcd60e51b815260206004820152601c60248201527f4552433732313a20746f6b656e20616c7265616479206d696e7465640000000060448201526064016103b6565b6001600160a01b0382166000908152600360205260408120805460019290610e7090849061184e565b909155505060008181526002602052604080822080546001600160a01b0319166001600160a01b03861690811790915590518392907fddf252ad1be2c89b69c2b068fc378daa952ba7f163c4a11628f55a4df523b3ef908290a45050565b816001600160a01b0316836001600160a01b03161415610f2c5760405162461bcd60e51b815260206004820152601960248201527822a9219b99189d1030b8383937bb32903a379031b0b63632b960391b60448201526064016103b6565b6001600160a01b03838116600081815260056020908152604080832094871680845294825291829020805460ff191686151590811790915591519182527f17307eab39ab6107e8899845ad3d59bd9653f200f220920489ca2b5937696c31910160405180910390a3505050565b610fa4848484610bad565b610fb084848484611120565b6108235760405162461bcd60e51b81526004016103b690611866565b6060815160001415610fec57505060408051602081019091526000815290565b6000604051806060016040528060408152602001611954604091399050600060038451600261101b919061184e565b61102591906118b8565b6110309060046118da565b67ffffffffffffffff81111561104857611048611449565b6040519080825280601f01601f191660200182016040528015611072576020820181803683370190505b509050600182016020820185865187015b808210156110de576003820191508151603f8160121c168501518453600184019350603f81600c1c168501518453600184019350603f8160061c168501518453600184019350603f8116850151845350600183019250611083565b50506003865106600181146110fa576002811461110d57611115565b603d6001830353603d6002830353611115565b603d60018303535b509195945050505050565b60006001600160a01b0384163b1561122257604051630a85bd0160e11b81526001600160a01b0385169063150b7a02906111649033908990889088906004016118f9565b602060405180830381600087803b15801561117e57600080fd5b505af19250505080156111ae575060408051601f3d908101601f191682019092526111ab91810190611936565b60015b611208573d8080156111dc576040519150601f19603f3d011682016040523d82523d6000602084013e6111e1565b606091505b5080516112005760405162461bcd60e51b81526004016103b690611866565b805181602001fd5b6001600160e01b031916630a85bd0160e11b149050610ba5565b506001949350505050565b82805461123990611681565b90600052602060002090601f01602090048101928261125b57600085556112a1565b82601f1061127457805160ff19168380011785556112a1565b828001600101855582156112a1579182015b828111156112a1578251825591602001919060010190611286565b506112ad9291506112b1565b5090565b5b808211156112ad57600081556001016112b2565b6001600160e01b031981168114610a0557600080fd5b6000602082840312156112ee57600080fd5b81356112f9816112c6565b9392505050565b60005b8381101561131b578181015183820152602001611303565b838111156108235750506000910152565b60008151808452611344816020860160208601611300565b601f01601f19169290920160200192915050565b6020815260006112f9602083018461132c565b60006020828403121561137d57600080fd5b5035919050565b80356001600160a01b038116811461139b57600080fd5b919050565b600080604083850312156113b357600080fd5b6113bc83611384565b946020939093013593505050565b6000806000606084860312156113df57600080fd5b6113e884611384565b92506113f660208501611384565b9150604084013590509250925092565b838152826020820152606060408201526000611425606083018461132c565b95945050505050565b60006020828403121561144057600080fd5b6112f982611384565b634e487b7160e01b600052604160045260246000fd5b6040516060810167ffffffffffffffff8111828210171561148257611482611449565b60405290565b600067ffffffffffffffff808411156114a3576114a3611449565b604051601f8501601f19908116603f011681019082821181831017156114cb576114cb611449565b816040528093508581528686860111156114e457600080fd5b858560208301376000602087830101525050509392505050565b60006020828403121561151057600080fd5b813567ffffffffffffffff8082111561152857600080fd5b908301906060828603121561153c57600080fd5b61154461145f565b823581526020830135602082015260408301358281111561156457600080fd5b80840193505085601f84011261157957600080fd5b61158886843560208601611488565b604082015295945050505050565b600080604083850312156115a957600080fd5b6115b283611384565b9150602083013580151581146115c757600080fd5b809150509250929050565b600080600080608085870312156115e857600080fd5b6115f185611384565b93506115ff60208601611384565b925060408501359150606085013567ffffffffffffffff81111561162257600080fd5b8501601f8101871361163357600080fd5b61164287823560208401611488565b91505092959194509250565b6000806040838503121561166157600080fd5b61166a83611384565b915061167860208401611384565b90509250929050565b600181811c9082168061169557607f821691505b602082108114156116b657634e487b7160e01b600052602260045260246000fd5b50919050565b60208082526031908201527f4552433732313a207472616e736665722063616c6c6572206973206e6f74206f6040820152701ddb995c881b9bdc88185c1c1c9bdd9959607a1b606082015260800190565b6020808252818101527f4f776e61626c653a2063616c6c6572206973206e6f7420746865206f776e6572604082015260600190565b634e487b7160e01b600052601160045260246000fd5b600060001982141561176c5761176c611742565b5060010190565b607b60f81b8152691134b6b0b3b2911d101160b11b600182015282516000906117a381600b850160208801611300565b61088b60f21b600b9184019182015268113730b6b2911d101160b91b600d82015283516117d7816016840160208801611300565b61227d60f01b60169290910191820152601801949350505050565b7f646174613a6170706c69636174696f6e2f6a736f6e3b6261736536342c00000081526000825161182a81601d850160208701611300565b91909101601d0192915050565b60008282101561184957611849611742565b500390565b6000821982111561186157611861611742565b500190565b60208082526032908201527f4552433732313a207472616e7366657220746f206e6f6e20455243373231526560408201527131b2b4bb32b91034b6b83632b6b2b73a32b960711b606082015260800190565b6000826118d557634e487b7160e01b600052601260045260246000fd5b500490565b60008160001904831182151516156118f4576118f4611742565b500290565b6001600160a01b038581168252841660208201526040810183905260806060820181905260009061192c9083018461132c565b9695505050505050565b60006020828403121561194857600080fd5b81516112f9816112c656fe4142434445464748494a4b4c4d4e4f505152535455565758595a6162636465666768696a6b6c6d6e6f707172737475767778797a303132333435363738392b2f68747470733a2f2f73746f726167652e676f6f676c65617069732e636f6d2f6f70656e7365612d70726f642e61707073706f742e636f6d2f70756666732f312e706e67a2646970667358221220c4132cfe79a26ddc64c4a1a53612d9ac12022ebc927d122d4cc695182321d7d064736f6c63430008090033",
  "linkReferences": {},
  "deployedLinkReferences": {}
}